:020000040800F2
:1000000088070020D9010008BB2E0008B32D000886
:10001000B92E0008B51A00086D3500080000000070
:10002000000000000000000000000000BF2E0008DB
:10003000EF1A000800000000BD2E0008C12E0008C5
:10004000F3010008F3010008F3010008F3010008C0
:10005000F3010008F3010008F3010008F3010008B0
:10006000F3010008F3010008F3010008F3010008A0
:10007000F3010008F3010008F3010008B91A0008B1
:10008000F3010008F3010008F3010008000000007C
:10009000000000000000000000000000F301000864
:1000A000F3010008F3010008F3010008F301000860
:1000B000F3010008F3010008F3010008F301000850
:1000C000F3010008F3010008F3010008F301000840
:1000D000F301000861350008F3010008F30100088E
:1000E000F3010008F3010008F3010008000000001C
:1000F0000000000000000000000000000000000000
:1001000000000000000000000000000000000000EF
:100110000000000000000000F3010008F3010008E7
:1001200000F002F800F048F80AA090E8000C8244C1
:100130008344AAF10107DA4501D100F03DF8AFF29E
:10014000090EBAE80F0013F0010F18BFFB1A43F0B5
:10015000010318472844000048440000103A24BF17
:1001600078C878C1FAD8520724BF30C830C144BF1C
:1001700004680C607047000000230024002500265E
:10018000103A28BF78C1FBD8520728BF30C148BFFA
:100190000B6070471FB500F0B1FB04000020002188
:1001A00003F0AAFB401C60600020002103F08EFBDE
:1001B000E0601FBD10B510BD00F0E2FD1146FFF775
:1001C000E9FF03F0D1FA01F03FF803B4FFF7F2FFC3
:1001D00003BC01F0A5F80000094880470948004722
:1001E000FEE7FEE7FEE7FEE7FEE7FEE7FEE7FEE7E7
:1001F000FEE7FEE704480549054A064B7047000044
:100200001B2F00082101000888010020880700201A
:1002100088030020880300200FB400B58DB010A91A
:10022000099000910B904FF0FF300A9000200C9045
:10023000064878440690064878446A4607900F9925
:1002400009A800F0F9FA0DB05DF814FB23060000D0
:100250003B060000032A40F2308010F0030C00F04F
:10026000158011F8013BBCF1020F624498BF11F8F0
:1002700001CB00F8013B38BF11F8013BA2F10402A9
:1002800098BF00F801CB38BF00F8013B11F0030321
:1002900000F00283083AC0F0088051F8043B083AA5
:1002A00051F804CBA0E80810F5E7121D5CBF51F827
:1002B000043B40F8043BAFF30080D20724BF11F8A1
:1002C000013B11F801CB48BF11F8012B24BF00F806
:1002D000013B00F801CB48BF00F8012B70474FF0FD
:1002E000000200B5134694469646203922BFA0E886
:1002F0000C50A0E80C50B1F12001BFF4F7AF090792
:1003000028BFA0E80C5048BF0CC05DF804EB890082
:1003100028BF40F8042B08BF704748BF20F8022BC5
:1003200011F0804F18BF00F8012B704770477047DD
:10033000704700002DE9FF4F06468BB00878FF2874
:1003400006D0491C2D2805D000244FF0000908E0F4
:1003500000200CE00124F8E709EB8903491C00EBBD
:1003600043090878FF28F7D114B1C9F1000081468C
:10037000107800252C46AA4629462D2801D02B2886
:1003800004D1521C2D2813D0002082468B461078B1
:10039000FF280FD04FF0000C0A21521CA5FB01785A
:1003A00004FB018105FB0C11C5194BEB0104EEE7C1
:1003B0000120EAE7002108464FF00000BAF1000FE3
:1003C00002D000EB80004008C0F38157012F01DD0F
:1003D0004FF0FF370E9955EA040009EB01080BD0E6
:1003E0004FF0020918F5FA7F16DA4FEACA70002FAB
:1003F000706008DD012007E04FEACA70C6E900B06E
:100400000FB0BDE8F08F0020306000F07BFAC0F83C
:1004100000901821084616E0B8F5FA7F18DD002F85
:1004200002DAF748784401E0F6487844D0E9001051
:10043000C6E9001040EACA70706000F063FAC0F8C4
:100440000090142108460FB0BDE8F04F03F0BFBF85
:10045000002108464FF00000B8F10001099002DACF
:10046000C7F1000200E03A4601DAC8F1000106A82F
:1004700000F010FC06AB93E8070003AB83E807002D
:1004800044F23E005BEA04010090584604D144F275
:100490001E012C465D460091210C0904014306D142
:1004A0000099240444EA15442D041039009104F005
:1004B0007F41014306D10099240244EA15642D02CC
:1004C0000839009104F07041014306D100992401DC
:1004D00044EA15742D01091F009104F040410143C5
:1004E00006D10099A40044EA9574AD00891E0091DC
:1004F00004F00041084304D100986D196441401E86
:1005000000904FF001033A466846B8F1000FCDE97C
:10051000014503A902DD01F096F901E001F069F956
:10052000BAF1000F04460D4601D084F000440021CA
:1005300008464FF00000099940F2FF77484010F05C
:100540000C0F07D124F00040284303D0C4F30A5015
:10055000B84212D100F0D6F9C0F80090C4F30A50A6
:10056000B8420AD1A8487844D0E90010C6E9001082
:1005700004F000410843706042E7C6E900543FE7D9
:100580002DE9FF4F1F464FF0000A4FF0FF38454658
:1005900091B0D7E90146CDF83CA000F0AFF9C068B2
:1005A0000168405C1090B96912986D1C8847396ADF
:1005B000814688470028F6D1B9F1FF3F0AD0002EC6
:1005C00024F4D06411DDB9F12B0F08D0B9F12D0F4F
:1005D0000BD102E0404615B013E744F48064B969DA
:1005E00012986D1C8847761E8146600504A901D5C6
:1005F0002D2000E02B20002E01F1010B0DF1300821
:100600008DF810003FDDB9F1690F08D0B9F1490F3D
:1006100005D0B9F16E0F02D0B9F14E0F1CD13B4697
:1006200001A8009580E85002DDE912126FF0020087
:1006300003F034FFC11CCED10EE0B96912986D1CD5
:10064000884781461398761E44F4007405600F981D
:10065000401C002E0F9016DDB9F1300FEDD0B9F12E
:10066000780F02D0B9F1580F0DD10F9801280AD197
:100670003B46CDE90054DDE91212001F029603F05B
:100680000BFFC11CA7D1109989453ED144F08004CD
:1006900006E01399681CAAF1010A44F4007408608A
:1006A000B9696D1C1298761E884730288146F0D0B3
:1006B0002BE01099894505D1200603D4761E44F01D
:1006C000800418E0484602F0E2FF08B3761E0DF100
:1006D00023018B4544F4007408D2A9F130000BF8D3
:1006E000010B200607D5AAF1010003E0200602D481
:1006F0000AF101008246A00502D51399681C086022
:10070000B96912986D1C88478146002ED1DC53E0F0
:10071000002E51DDB9F1650F02D0B9F1450F4BD173
:10072000A00549D5B9696D1C1298761E24F4407451
:100730008847002E81460CDD2B2804D0B9F12D0FFF
:1007400007D144F48074B96912986D1C8847761EED
:100750008146E00501D52D2100E02B2108F8011B81
:10076000CDF8008021E0761E0DF13901884544F472
:1007700000740CD2A9F1300010F0FF0088F80000DE
:1007800002D10099884509D908F1010806E0E00581
:1007900001D51E4801E042F20F708246B9691298F5
:1007A0006D1C8847814613980560002E04DD48467D
:1007B00002F06DFF0028D6D1F96912988847FF2012
:1007C00053468BF8000088F8000000200A900B9038
:1007D00004AA0CA90AA8FFF7ADFDA00502D46FF08A
:1007E0000100F8E614F0240F12D0E0071CD138689D
:1007F000DDE90A12031D3B600068C0E9001213E046
:100800007C4100006E41000032400000F1D8FFFF43
:100810000AA9684602F0CAFEE00705D13868009AC6
:10082000011D3960006802602846D4E60268114460
:100830001378016018467047D160054979445161C9
:1008400004497944116200211161114600F068B831
:10085000EDFFFFFFC7000000426842B1016811F8D8
:10086000013B23B1521EC0E9001218467047012116
:10087000C160881E704742685AB1C368016843B9B5
:1008800083688B4205D0491E521CC0E9001200202B
:1008900070474FF0FF30704710B5203AC0F00B8022
:1008A000B1E81850203AA0E81850B1E81850A0E874
:1008B0001850BFF4F5AF5FEA027C24BFB1E81850CE
:1008C000A0E8185044BF18C918C0BDE810405FEA3E
:1008D000827C24BF51F8043B40F8043B08BF7047BA
:1008E000D20728BF31F8023B48BF11F8012B28BFBF
:1008F00020F8023B48BF00F8012B704700487047C2
:1009000048010020004870472801002010B5044627
:1009100000F05CFA0068005D00F0010010BD00000E
:100920002DE9F34F4FF0000A0C4656468DB00120DA
:100930000C9001F10C000B9062690B98012190471B
:10094000051E2DD0252D2CD0216A8847C0B16269A3
:100950000B9801219047216A88470028F7D16269E6
:10096000411E0B98904700E0761CA1690D988847BE
:10097000216A88470028F7D1E1690D988847DBE7AD
:10098000A1690D988847A842074601D1761CD3E794
:10099000E1690D9888477F1C02D1BAF1000F6FD032
:1009A0006BE162690B9800273D46394690472A283B
:1009B00004D162690B98012190470125DFF8D082AC
:1009C00062690B9801219047A0F130010A290AD2EF
:1009D0004745E5DC07EB870100EB4107303FDFD4FB
:1009E00045F01005ECE7E90601D46FF000476C28EC
:1009F0000AD04C2814D0682815D06A280DD0742845
:100A00001CD07A281AD01DE062690B98012190470A
:100A10006C2802D045F0040514E045F002050DE015
:100A200045F020050AE062690B980121904768288B
:100A300002D045F0080505E045F4006562690B98B1
:100A400001219047C4E9015765283DD019DC582899
:100A50007AD00CDC452837D004DC252826D0412864
:100A60009ED131E046282FD0472899D12CE05B2831
:100A700077D0612828D063287CD0642823D15AE01D
:100A8000F6E06F2848D008DC66281DD067281BD008
:100A9000692821D06E2816D127E0702845D0732808
:100AA00068D0752847D078280DD14DE0A1690D9800
:100AB0008847252805463FF469AFE1690D988847C6
:100AC0006D1C3FF46AAFD8E00D9923466A466FF07B
:100AD000010003F0DFFCC5E045F0400023464FF085
:100AE00000026060A80736D43EE0E8077FF447AF15
:100AF0002068011D21600068290501D506701BE7EB
:100B0000290701D5068017E7A90703D5F117C0E922
:100B1000006111E706600FE745F0400023464FF003
:100B200008026060A80716D41EE040F60E0125EA10
:100B30000100606016E045F0400023464FF00A02D5
:100B40006060A80707D40FE045F040006060A80788
:100B500008D5234610220D996FF00100AFF30080F5
:100B600080E007E0102223460D996FF00100AFF3FB
:100B7000008077E04FF0000963284F46C8464B4697
:100B8000CB4602D05B2806D038E0E80601D401202D
:100B9000A060012732E06269D4F80CB00B98012103
:100BA00090475E2807D14FF0010949466269D4F8A1
:100BB0000CB00B989047216939B900210A4603AB64
:100BC00043F82120491C0829FADBD8B3216949B32D
:100BD00008F1010862690B98012190475D28F4D162
:100BE000B9F1000F09D0002003A951F82020D24309
:100BF00041F82020401C0828F7DB03AB20690028BF
:100C000020794FEA40701ED05B462246CDF8008026
:100C1000CDE901970D9900286FF0010020DAAFF3BC
:100C200000801FE0C11703AA00EBD1614B1121F036
:100C30001F0102EB8302411A13680120884003431D
:100C40001360C7E719E00D99224600286FF00100F4
:100C5000009702DAAFF3008004E0AFF3008001E018
:100C6000AFF3008000280ADA401C06D10C9820B1AE
:100C70004FF0FF300FB0BDE8F08F5046FAE7E907BC
:100C800001D10AF1010A064400200C9054E600004C
:100C9000CCCCCC0C2DE9F047814616468AB03548BD
:100CA00078440DC88DE80D0032487844801C03ACB0
:100CB0000DC884E80D0041F69B300844372190FBB5
:100CC000F1F290FBF1F5A5F1800501FB12041B3C4C
:100CD00002D56442012000E00020DFF898A08046A1
:100CE0000027FA44AAF1BE0A0EE0E0070AD0324615
:100CF000684607EB470101230AEB810100F08EFDF6
:100D00008DE8070064107F1C002CEED1194F7F4442
:100D1000AE3F19E0E80715D007EB04100DF1180AF3
:100D200090E80E008AE80E00C068F04201D19819E0
:100D300008903246012306A903A800F06FFD03AB1B
:100D400083E807006D10641C002DE3D14FF0010310
:100D500032466946B8F1000F03A802D000F034FD16
:100D600001E000F05BFDC9E90001C9F808200AB004
:100D7000BDE8F087C0380000004870472801002017
:100D80007546FFF7F9FFAE4605006946534620F069
:100D90000700854618B020B5FFF72CFABDE82040C3
:100DA0004FF000064FF000074FF000084FF0000B27
:100DB00021F00701AC46ACE8C009ACE8C009ACE8DA
:100DC000C009ACE8C0098D467047000010B5FFF7B8
:100DD00095FD001D10BD00BF212B000010B5FFF7D1
:100DE00091FD006810BD10B50446FFF78BFD04604F
:100DF00010BD00002DE9FF4F1F464FF03C0987B0A2
:100E00004FF00042DDE9141001F10108DDF858A0AF
:100E100002EA4050039000200590834605460446B0
:100E20000490B969461E08988847AAF1010A029001
:100E3000BAF1000F3BDD02982E2815D0102100F0EA
:100E400060FA00282EDB4FF0010B0599014317D003
:100E5000B9F1000F0BDB4A46C11700F03FFA05431A
:100E60000C43A9F1040905E0012004900BE008B14E
:100E700045F0010501200590049820B9361D02E0D7
:100E8000049800B1361FB969089808F1010888472D
:100E9000BBF1000FAAF1010A0290C9D00999C1F86B
:100EA0000080C5E70298702808D0502806D0F9695C
:100EB00008988847BBF1000F14D04FE00020029043
:100EC0000120BBF1000F049009D0B969089808F11E
:100ED00001088847AAF10109B9F1000F07DCF96997
:100EE000089888476FF001000BB0BDE8F08F2B2801
:100EF00004D02D280CD14FF0FF300490B969089828
:100F000008F101088847A9F10109B9F1000FE6DDF0
:100F1000411CE4D00A2100F0F4F90028DFDB02993B
:100F200008F1010801EB810100EB41000290B96971
:100F3000089888470A2100F0E4F9099AA9F1010903
:100F4000B9F1000FC2F8008001DD0028E7DAF96985
:100F5000089888470499029800FB016655EA040046
:100F600004D004F04041090002D006E0039898E064
:100F7000A40044EA9574AD00B61E04F000410800D8
:100F800002D16D196441761E159810F0240F03D01C
:100F90004FF00B095C4803E04FF028096FF07D002B
:100FA0008246564507DAAAEB06018944B9F1410F9A
:100FB00001DD4FF0410901200021A9F1010200F0FB
:100FC0008DF9024628400B462140084301D00121FB
:100FD00000E00021501E029143F1FF3128402140E2
:100FE000084301D0012000E000200299834651EA25
:100FF0000B014FD0002108464FF00000039900F488
:10100000400039B100EB80004FF4400100EBD0709C
:1010100001EA60008015012802DD4FF0FF3000E09A
:1010200013D0401C36D0029860B3BBF1000F0CD136
:101030004A460120002100F051F928402140084390
:1010400001D0012000E00020E0B101204A4600214B
:1010500000F044F9034640190A4661412D1A8C41BB
:1010600011D3B9F1400F09DD159810F0240F02D00B
:10107000AAF1340603E0AAF1170600E0761C002569
:101080004FF0004406E05B1E42F1FF3220EA030508
:1010900021EA0204CAF10100B04206DA1B490398B2
:1010A00008430190002000900EE0039AC4F3D3217E
:1010B000E80A0A43164940EA44500A433146CDE95A
:1010C0000002684602F0D8FA159810F0240F0BD0F1
:1010D0001598C00715D13868DDE90012031D3B6083
:1010E0000068C0E900120CE002A8694602F05EFA4E
:1010F0001598C00705D13868029A011D396000684B
:1011000002604046F0E6000002FCFFFF0000F07FB6
:101110000000F03F2DE9FF4F92461D4685B04FF08D
:101120000041DDE9124BDDE914727F1E01EA4B50EC
:10113000414940F0FF4940EA0108002122F0200027
:101140004928049102D04E2828D04CE03BA001262B
:1011500007C88DE80700A9690698641C88477F1EA8
:10116000014606D41DF8060018B121F02001814285
:101170000BD0E96906988847032E34D0082E32D068
:101180006FF0010009B0BDE8F08F761C032E01D08E
:10119000082EE0D1601CCAF80000DCE7A9690698B7
:1011A000641C88477F1E2AD420F02000412826D1C5
:1011B000A9690698641C88477F1E20D420F020006F
:1011C0004E281CD1A9690698641C88477F1E48F4E4
:1011D000002849F48009CAF8004001D4282806D024
:1011E000E969069888475FEACB7012D022E0A969C6
:1011F0000698641C88477F1E01D4002803DAE96939
:1012000006988847BCE72928F1D1641CCAF8004039
:10121000E9E71BF0240F07D028680499031D2B6011
:101220000068C0E9001805E02868021D2A6000680F
:10123000C0F800902046A5E70000F07F494E4649DF
:101240004E4954590000000010B50446AFF3008029
:101250002046BDE81040FEF7B8BF00004FF0013C4B
:1012600050F8042B51F8043B9A4221D1A2EB0C0315
:10127000934313EACC1317D150F8042B51F8043BD5
:101280009A4215D1A2EB0C03934313EACC130BD172
:1012900050F8042B51F8043B9A4209D1A2EB0C03FD
:1012A000934313EACC13DBD04FF00000704700BF2C
:1012B000D01A01BAB1FA81F101F0180122FA01F055
:1012C000CB40C1F12001DBB2C0B2C01A2CFA01F34D
:1012D000D11A914311EAC311E6D17047B2F120034C
:1012E0000AD5C2F1200301FA02F120FA03F300FA51
:1012F00002F041EA0301704700FA03F14FF00000E9
:1013000070473A2800D2303820F02002412A01D319
:10131000A2F13700884201D34FF0FF307047000040
:1013200001491820ABBEFEE726000200704720F0FE
:101330007F4C80EA030023F07F47ACEB070303F503
:101340007C5300F0004003F1FF032DE980494FEA90
:10135000154B09B44FEA144325EA0B4E24EA03481F
:101360000FF2042606EB132749083E785FEA3202A3
:1013700003FB0667C7F5000707FB06F64FEA54377D
:101380004FEAD64606F1020607FB066CCCF1005C7C
:101390004FEA1C472CEA074C07FB06F40CFB06F54A
:1013A00004EB15464FEA961634BF00204FF000407C
:1013B0004FEAD13706FB07FC4FEA1C4C0CFB0BF73E
:1013C000D21B03FB0CF761EB07010CFB0EF7B0EB34
:1013D000074072EB17420CFB08F734BFA2EB074241
:1013E000B2EB074261EB17414FEA0C444FEA910719
:1013F00006FB07FC4FEA1C4C0CFB0BF7B0EBC7409D
:1014000072EB573203FB0CF734BFA2EBC742B2EBCF
:10141000C74261EB57310CFB0EF7B0EBC70072EB24
:1014200057720CFB08F734BFA2EBC702B2EBC7023E
:1014300061EB5771039F4FEA816141EA921104EB1E
:10144000CC044FEAD1374FEA826206FB07FC42EA3E
:1014500090124FEA80604FEA1C4C0CFB0BF7D21B3A
:1014600003FB0CF761EB07010CFB0EF7B0EB074039
:1014700072EB17420CFB08F734BFA2EB0742B2EB4A
:10148000074261EB17414FEA8C554FEA910704EB95
:101490009C2406FB07FC4FEA1C4C0CFB0BF7B0EB43
:1014A000C74072EB573203FB0CF734BFA2EBC742C5
:1014B000B2EBC74261EB57310CFB0EF7B0EBC70044
:1014C00072EB57720CFB08F734BFA2EBC702B2EB0A
:1014D000C70261EB577115EB4C254FEA816141EA78
:1014E00092114FEA82624FEAD13742EA901206FB2C
:1014F00007FC44F100044FEA80604FEA1C4C0CFBEF
:101500000BF7D21B03FB0CF761EB07010CFB0EF78B
:10151000B0EB074072EB17420CFB08F734BFA2EBAD
:101520000742B2EB074261EB174115EB1C154FEA7E
:10153000813141EA92414FEA823242EA90424FEAD7
:1015400080304FEA0C7644F1000448EA03434EEA47
:101550000B484FF0000EB2EB080C71EB030724BFF1
:10156000624639464EEB0E0E4FF0000B001852410A
:1015700049414BEB0B0BB2EB080C71EB03077BF112
:10158000000B24BF624639464EEB0E0E4FF0000BA7
:101590000018524149414BEB0B0BB2EB080C71EBBD
:1015A00003077BF1000B24BF624639464EEB0E0E5B
:1015B00051EA020718BF46F0010616EB0E7655F108
:1015C000000254F1000103D5BDE88901BDE800889F
:1015D000BDE88901BDE80048B619524141EB01015F
:1015E000A3F10103704780807F7E7D7C7B7A7978D0
:1015F000777676757473727171706F6E6E6D6C6CD8
:101600006B6A6A6968686766666564646363626179
:101610006160605F5F5E5E5D5D5C5C5B5B5A5A59FA
:101620005958585757565655555554545353525266
:101630005251515050504F4F4F4E4E4D4D4D4C4CBE
:101640004C4B4B4B4A4A4A49494948484847474707
:101650004746464645454544444444434343434244
:10166000424242414141000046EA0646A3F570531A
:101670004FEA164646EA42564FEAD22242EA415221
:1016800010B54FEAD121A3F1010300F02FF820F0AB
:10169000004000F1020C00F0004701EB0050114641
:1016A000BCF5006F40EA070000D210BDBAF1000F90
:1016B0000AD01CB503B44FF004004FF004014FF002
:1016C00000000FBCBDE810404FF00001BBF1010F5E
:1016D000B9BF04484FF0FF310348002140EA07003A
:1016E00010BD00BFFFFFEF7F0000F07F002B9C4686
:1016F00030D477002BD01CB54FEA370703B44FF036
:1017000010004FF01001BAF1000F06D0BCF1000F2D
:10171000DCBF40F0080040F008014FF000000FBCB3
:10172000BDE810400BF1010BBBF1010F08BF5FEAF0
:10173000170722BF12F1010211F101014FF0004120
:1017400043F1000300F0004043EA00007047F9D382
:101750005708D0E746EA064613F1400F4FEA16460F
:101760001FDD13F1200FDFBF16430A46002120338F
:101770005B42BED0C3F1200746EA064602FA07F7ED
:101780004FEA164646EA0706C3F1200722FA03F29B
:1017900001FA07F721FA03F14FF0000342EA0702CA
:1017A000A7E746EA020646EA06464FEA164646EA32
:1017B0000106BCBF46EA0646360C4FF000034FF068
:1017C00000024FF0000194E72DE9804C9A469346C1
:1017D00070B491E8380007C831EA400C48BF34EAD9
:1017E000430C03D5FFF7A3FDFFF780FFF0BCBDE876
:1017F000008C2DE9804C9A46934670B491E83800ED
:1018000007C831EA400C48BF34EA430C03D5FFF760
:101810008EFDFFF729FFF0BCBDE8008C2DE9804C60
:101820009A46934670B491E8380007C810F0804F8C
:1018300008BF13F0804F03D100F01AF8FFF756FFEE
:10184000F0BCBDE8008C2DE9804C9A46934670B4FC
:1018500091E8380007C810F0804F08BF13F0804FA0
:1018600003D100F005F8FFF7FFFEF0BCBDE8008CE7
:1018700020F07F4780EA030023F07F4C07EB0C0346
:10188000A3F57C5300F00040A3F1FE0392F0000F9B
:1018900000F0B38095F0000F00F077802DE901494A
:1018A0004FEA11404FEA144621EA004800FB06FCCB
:1018B00024EA064708FB06F607FB08F800FB07F7D3
:1018C00018EB06484CEB164C4FEA124B18EB074846
:1018D0004FEA15464CEB174022EA0B4E0BFB06FC79
:1018E00025EA06470EFB06F607FB0EFE0BFB07F785
:1018F0001EEB064E4CEB164C4FF000061EEB074E4F
:101900004CEB174B18EB0B0840F1000018EB0E0BDB
:1019100058EB000840F100008F1A4FF000013CBF67
:10192000C943661B14BFB5EB040C00213CBFC9437F
:10193000F61B4FEA17444EEA8E0E27EA04454FEA9B
:101940001C4704FB07622CEA074C05FB07F70CFB5E
:1019500005F604FB0CFC16EB074642EB174216EBB0
:101960000C4642EB1C421BEB060658EB02024141BF
:1019700046EA9E0601D5BDE80189B619524141EB00
:101980000101A3F10103BDE801894FEA14454FEAC3
:10199000114724EA054621EA074C05FB07F406FB3C
:1019A00007F70CFB06F105FB0CFC11EB074144EBC0
:1019B00017444FEA124711EB0C4144EB1C4422EA56
:1019C000074C05FB07F206FB07F70CFB06F605FBC9
:1019D0000CFC16EB074642EB174216EB0C4642EBAB
:1019E0001C456A1854F1000148BF7047B6195241AE
:1019F00041EB0101A3F10103704795F0000F37D0CF
:101A00004FEA11424FEA144721EA024624EA074C02
:101A100002FB07F106FB07F70CFB06F402FB0CFCCC
:101A200014EB074441EB17414FEA154714EB0C4404
:101A300041EB1C4125EA074C02FB07F506FB07F7C3
:101A40000CFB06F602FB0CFC16EB074645EB1745B4
:101A500016EB0C4645EB1C42121951F1000148BF30
:101A60007047B619524141EB0101A3F101037047E0
:101A70004FEA14454FEA114724EA054621EA074C8C
:101A800005FB07F106FB07F70CFB06F24FF000061B
:101A900005FB0CFC12EB074241EB174112EB0C4229
:101AA00051EB1C4148BF7047921841EB0101A3F173
:101AB00001037047FEE70000014800F08BB800000A
:101AC000C400002030B590F840500124AC40C56BF4
:101AD0006C60046863604368102B036803D09960EE
:101AE0000068C26030BD9A600068C16030BD704758
:101AF00072B6FEE710B590F821100022022905D039
:101B00000421816380F82020012010BD01680B684A
:101B100023F00E030B6001680B6823F001030B60D8
:101B200090F84030C46B012101FA03F3636080F840
:101B3000211080F82020104610BD000010B590F84C
:101B400021100024022903D00421816301243DE0F7
:101B500001680A6822F00E020A6001680A6822F031
:101B600001020A601A4A0168914201D1012121E073
:101B7000174A1432914201D110211BE0144A283235
:101B8000914201D1891515E0114A3C32914201D1AF
:101B900089140FE00E4A5032914202D14FF4803145
:101BA00008E00B4A6432914202D14FF4801101E007
:101BB0004FF08071064A083A5160012180F82110E7
:101BC000002180F82010416B01B18847204610BDEC
:101BD000080002402DE9F05FC16B0C6801680B68DA
:101BE000D0F840C0042202FA0CF2494DDFF824A1DB
:101BF000494E4A4FDFF828B1DFF828E122422CD0C5
:101C00005A072AD50A68920603D40A6822F0040209
:101C10000A600168A94201D1042219E0514501D1AD
:101C2000402215E0B14202D14FF4806210E0B94287
:101C300002D14FF480420BE0594502D14FF480228B
:101C400006E0714502D14FF4800201E04FF080625E
:101C50002F4908394A60C16A3BE04FF0020808FA90
:101C60000CF818EA040F4FF000094FF0010235D0CC
:101C70005FEA837832D50B689B0605D40B6823F0A6
:101C80000A030B6080F821200168A94201D10222D9
:101C900019E0514501D1202215E0B14202D14FF4A3
:101CA000007210E0B94202D14FF400520BE05945E6
:101CB00002D14FF4003206E0714502D14FF4001218
:101CC00001E04FF00072124908394A6080F8209014
:101CD000816A00291AD0BDE8F05F0847082505FA97
:101CE0000CF5254212D01B0710D50B6823F00E030C
:101CF0000B6090F84010C36B02FA01F159608263E7
:101D000080F8212080F82090016BE2E7BDE8F09F89
:101D1000080002401C000240300002404400024023
:101D2000580002406C00024030B528B308C813497F
:101D300014221944B1FBF2F18900C1631049816397
:101D4000022141771A6843F6F0718A43D0E9001402
:101D50002143D0E902452C432143046921434469CE
:101D60002143846921431143196000214163012209
:101D700042770177084630BD012030BDF8FFFDBF36
:101D80000000024070B5044690F8200000250128AC
:101D90000CD0012084F8200094F821600020012E4E
:101DA00006D084F820000225284670BD022070BDB0
:101DB000022684F82160A0632068066826F00106E8
:101DC00006602046FFF77EFEE06A00282068016872
:101DD00002D041F00E0106E021F00401016020680C
:101DE000016841F00A0101602068016841F00101C9
:101DF0000160D9E72DE9F84FDFF8B891002409F127
:101E0000040A0AF1040B23460F270BF1040EC9E064
:101E10000125A5402A40AA427DD1674ED1F804C0D1
:101E2000ACEB0608B44532D014DCBCF1030F3AD059
:101E300009DCBCF1000F2AD0BCF1010F1CD0BCF1B1
:101E4000020F31D11DE0BCF1110F17D0BCF1120F00
:101E50002AD119E0B8F5881F19D006DCB8F5803F03
:101E600015D0B8F5801F1FD111E0B8F5001F0ED0B6
:101E7000B8F5041F18D10AE0CB6815E0CB681B1D2C
:101E800012E0CB6808330FE0CB680C330CE08B68B2
:101E90002BB1012B4FF0080303D0456104E004236C
:101EA00002E0056100E00023FF2A01D8064601E0B8
:101EB00000F104064FEA840501D9A5F12005D6F802
:101EC000008007FA05FC28EA0C0803FA05F548EA41
:101ED0000508C6F800804D68ED0062D5374DAE6943
:101EE00046F00106AE61AD6924F0030605F0010578
:101EF0000095334D06EB050CDCF80850A607360FAD
:101F000007FA06F825EA0805DFF8B880404503D14E
:101F10004FF0000817E044E0DFF8AC80404502D104
:101F20004FF001080FE0DFF8A480404502D14FF0E8
:101F3000020808E0DFF89880404502D14FF003081E
:101F400001E04FF0040808FA06F848EA0508CCF862
:101F500008804D68D9F80060ED034D4601D5164361
:101F600000E096432E604D68DAF80060AD035546F8
:101F700001D5164300E096432E604D68DBF8006003
:101F8000ED025D4601D5164300E096432E604D6894
:101F9000DEF80060AD02754601D5164300E09643B9
:101FA0002E60641C0D682A46E5407FF431AFBDE821
:101FB000F88F0000000401400000111000100240E2
:101FC0000000014000080140000C014000100140E9
:101FD000001401400AB1016170470904FBE70000E9
:101FE000014880687047000028000020024881688E
:101FF00002781144816070472800002010B503204A
:1020000000F074F8002000F005F800F023F800203C
:1020100010BD000070B50D4D04464FF47A7128785C
:10202000B1FBF0F00A490968B1FBF0F000F0D2FA18
:1020300048B9102C07D200222146501E00F036F875
:1020400000206C6070BD012070BD000028000020E1
:10205000340000200C4808B5816941F0010181611C
:10206000816901F001010091C16941F08051C161B4
:10207000C06900F0805000900448416821F0E061A0
:1020800041F00071416008BD0010024000000140B5
:10209000002809DB00F01F02012191404009800067
:1020A00000F1E020C0F8001170470000F0B40E4BC2
:1020B0001B680C46C3F30223C3F10705042D00D9A6
:1020C0000425191D072901D2002300E0DB1E01268B
:1020D00006FA05F1491E214099409E40761E1640A1
:1020E0003143F0BC01F043BA0CED00E0064900F0CA
:1020F000070208684FF6FF03184040EA0220034A2F
:1021000010430860704700000CED00E00000FA0585
:102110002DE9F041050027D02868334C810712D5FE
:10212000400703D5606840F4E060606028780007ED
:1021300003D5606840F4605060606068A96820F072
:10214000F000084360602878C00729D0686801283B
:1021500004D02168022804D0890703E0216889039C
:1021600000E08901002902DB0120BDE8F0816168FF
:1021700021F0030101436160FFF732FF064641F29F
:10218000883706E0FFF72CFF801BB84201D90320F7
:10219000EBE76068696800F00C00B0EB810FF1D1EB
:1021A0002878400705D56068E96820F4E0600843B6
:1021B00060602878000706D56068296920F46050BF
:1021C00040EAC100606000F037F86168074AC1F377
:1021D0000311515CC8400649086006480068FFF7D3
:1021E00019FF0020C1E7000000100240D0440008A1
:1021F000340000202C00002004480549006849688C
:10220000044AC1F30221515CC840704734000020E9
:1022100000100240E044000804480549006849688D
:10222000044AC1F3C221515CC84070473400002009
:1022300000100240E044000813A188B00FC98DE8E7
:102240000F0015A10DF1100C0FC98CE80F00164AF4
:102250005168164801F00C03042B10D0082B0ED146
:10226000C1F38343C9031DF803000AD5D16A04AA48
:1022700001F00F01515C0D4A5043B0FBF1F008B082
:1022800070470B494843FAE70203040506070809AB
:102290000A0B0C0D0E0F10100102030405060708AF
:1022A000090A0B0C0D0E0F100010024000127A00EC
:1022B00000093D002DE9F84F040070D02078C04D92
:1022C000C00749D06868C0F38100012807D068685A
:1022D000C0F38100022809D16868C00306D52868C8
:1022E000800339D560680028E7D035E06068B0F534
:1022F000803F0BD010B1B0F5A02F11D0286820F48A
:1023000080302860286820F4802002E0286840F4AB
:1023100080302860606890B1FFF762FE06460AE0F0
:10232000286840F480202860F0E700BFFFF758FEDF
:10233000801B642873D828688003F7D50CE0FFF76A
:102340004FFE064605E000BFFFF74AFE801B6428EB
:10235000F0D828688003F7D420789A4E80074FF091
:1023600001094FF0000839D5686810F00C0F07D04C
:102370006868C0F38100022809D16868C00306D4E8
:102380002868800714D52069012808D110E0206949
:10239000B0B1C6F80090FFF723FE074605E00AE15A
:1023A000FFF71EFEC01B0228C4D828688007F7D597
:1023B0002868616920F0F80040EAC10028600DE05B
:1023C000C6F80080FFF70CFE074604E0FFF708FEA2
:1023D000C01B022823D828688007F7D4207800077C
:1023E0002CD57948A169D9B1C0F80090FFF7F8FD64
:1023F000074604E0FFF7F4FDC01B02280FD8686A07
:102400008007F7D571484FF4FA510068B0FBF1F03E
:10241000009000BF0098411E0091FAD20EE080E0CB
:10242000C0F80080FFF7DCFD074604E0FFF7D8FDA9
:10243000C01B022875D8686A8007F7D42078400747
:1024400060D5E8690027C00008D4E86940F08050F2
:10245000E861E869012700F0805000905C4801685D
:10246000C90513D40168834641F480710160FFF708
:10247000B7FD824606E000BFFFF7B2FDA0EB0A0001
:1024800064284ED8DBF80000C005F5D5E0680128C7
:102490000AD008B1052813D0286A20F0010028626C
:1024A000286A20F0040002E0286A40F00100286257
:1024B000E06841F2883B98B1FFF792FD82460BE05D
:1024C000286A40F004002862EEE700BFFFF788FDAD
:1024D000A0EB0A0159455AD8286A8007F6D50CE0C6
:1024E000FFF77EFD824605E0FFF77AFDA0EB0A01CB
:1024F00059454CD8286A8007F6D41FB1E86920F006
:102500008050E861E06988B36968C1F381010229FC
:1025100044D00228C6F8608004D0FFF761FD04466D
:1025200038E034E0FFF75CFD074604E0FFF758FDB4
:10253000C01B02282BD828688001F7D4206AB0F588
:10254000803F05D1E86AA16820F00F000843E862E7
:10255000D4E908010843696821F4741108436860EC
:10256000C6F86090FFF73CFD044606E025E000BF9A
:10257000FFF736FD001B022809D828688001F7D52F
:102580001BE000BFFFF72CFD001B022802D903202F
:10259000BDE8F88F28688001F4D40EE00128F7D058
:1025A0006868226A00F48031914204D1616A00F4C3
:1025B0007010884201D00120EAE70020E8E700001F
:1025C00000100240000042428004424234000020D9
:1025D0000070004010B5401EB0F1807F01D3012093
:1025E00010BD4FF0E02460610F21601700F0BFFFC5
:1025F0000020A06107202061002010BD70B590F878
:102600003C20012A29D0012480F83C40022280F895
:102610003D2003685A689D6822F070060A683243BC
:102620005A600F4B02689A420BD0B2F1804F08D02B
:102630000C4B9A4205D00C4B9A4202D00B4B9A425B
:1026400004D1496825F080031943916080F83D402A
:10265000002180F83C10084670BD022070BD0000CB
:10266000002C0140000400400008004000400140F0
:1026700010B5040003D094F83D0010B107E001202C
:1026800010BD002084F83C00204600F01FF8022016
:1026900084F83D00211D206800F040FC012084F8F2
:1026A000460084F83E0084F83F0084F8400084F837
:1026B000410084F8420084F8430084F8440084F820
:1026C000450084F83D00002010BD000008B50068FA
:1026D000B0F1804F08D10548C16941F00101C161E5
:1026E000C06900F00100009008BD00000010024029
:1026F00070B5044690F83C00012817D0012584F8F5
:102700003C50022084F83D002068826822F0770265
:1027100022F47F4282600868502830D00DDC2028E7
:102720004DD005DC98B310283BD148E0022070BDA5
:10273000302844D0402834D139E0602828D070288F
:1027400006D0B0F5805F2CD0B0F5005F29D10AE04B
:10275000CB68D1E90121206800F039FC206881684C
:1027600041F0770109E0CB68D1E90121206800F050
:102770002EFC2068816841F48041816011E0CA68C4
:102780004968206800F020FD5021206807E016E02D
:10279000CA684968206800F028FD6021206800F0C0
:1027A00020FC84F83D50002084F83C0070BDCA68CD
:1027B0004968206800F008FD40212068EFE72268A2
:1027C00001461046EBE7000000B585B000210091FE
:1027D0000191029103910068B0F1804F11D10A4834
:1027E000816941F0040181618069694600F004005B
:1027F0000490012000900220019003900348FFF70D
:10280000F9FA05B000BD00000010024000080140C8
:1028100070B5044690F83C000D4601280AD001200E
:1028200084F83C0042B1042A18D0082A2AD00C2A85
:102830004DD139E0022070BD206800F0DBFB20683C
:10284000816941F0080181612068816921F00401FA
:102850008161206881692A69114311E0206800F0D4
:1028600009FC2068816941F4006181612068816907
:1028700021F480618161206881692A6941EA02212D
:10288000816124E0206800F031FC2068C16941F0DA
:102890000801C1612068C16921F00401C16120689B
:1028A000C1692A69114311E0206800F05BFC2068CF
:1028B000C16941F40061C1612068C16921F480618E
:1028C000C1612068C1692A6941EA0221C161002011
:1028D00084F83C0070BD10B5040003D094F83D00AE
:1028E00010B107E0012010BD002084F83C00204614
:1028F00000F01EF8022084F83D00211D206800F041
:102900000DFB012084F8460084F83E0084F83F0067
:1029100084F8400084F8410084F8420084F84300C1
:1029200084F8440084F8450084F83D00002010BD80
:102930007047000010B50446022249B104290ED0A8
:10294000082913D094F84100012816D0012010BDA9
:1029500094F83E000128F9D184F83E200FE094F865
:102960003F000128F2D184F83F2008E094F84000AD
:102970000128EBD184F8402001E084F841200122B5
:10298000206800F017FB154A20681549904207D0CF
:10299000884205D0134B984202D0134B984203D182
:1029A000436C43F400434364206890420AD0B0F182
:1029B000804F07D00D4A904204D00D4A904201D07A
:1029C000884204D1816801F00701062903D001681B
:1029D00041F001010160002010BD0000002C014009
:1029E0000040014000440140004801400004004014
:1029F0000008004038B5044690F83E0020281CD15D
:102A000081B17AB194F83C00012816D0012084F8F5
:102A10003C002063204600F06BFD002803D1216BB1
:102A2000012901D0012038BD21680A684A68009256
:102A3000CA6842F01002CA6038BD022038BD0000EA
:102A400010B50C4600680D49884215D10C49224644
:102A500001F10A00FDF7FEFB09490A22A1F18800F5
:102A6000FFF7C8FF064844380068016821F00401F8
:102A700001600448641E047010BD0000003801406D
:102A8000080100200000002070470000F8B502682F
:102A900004461068D168536910F00F0F4FF000051D
:102AA00053D003F0010601F4907737435FD0C2079B
:102AB00005D0CA0503D5226C42F001022264420708
:102AC00005D5DA0703D0226C42F0020222648207A5
:102AD00005D5DA0703D0226C42F004022264020713
:102AE00007D501F02002324303D0226C42F00802E5
:102AF0002264226C002A34D0800604D5880602D5D0
:102B0000204600F00CFC20684069216CC0F3801066
:102B1000090700D430B3204600F0E0FB206841698B
:102B200049061BD5416921F040014161A06BA8B164
:102B300058494163A06BFFF701F8002811D0A06B42
:102B4000416B01B0BDE8F040084783060FD58B0606
:102B50000DD52046BDE8F84000F0E1BB2046FFF768
:102B600093FFF8BD2046FFF78FFF2564F8BD266B65
:102B70002023012E52D1C60650D5CE064ED5106860
:102B800050680090506940062AD5A16B08684068DB
:102B90000004000CEAD0A68D8642E7D9E08588695A
:102BA000202818D0D06820F48070D0602068416957
:102BB00021F0010141612068416921F0400141613A
:102BC00084F83E3025632068C16821F01001C1609F
:102BD000A06BFEF78FFFA08DE18D401A81B219E046
:102BE000A08DE18D401A81B2E08D0028BED0002971
:102BF000BCD0D06820F49070D0602068426922F088
:102C00000102426184F83E3025632068C26822F0E8
:102C10001002C2602046FFF713FFF8BD05062BD552
:102C20000D0629D594F83D002128F6D1A068B0F50D
:102C3000805F01D12069B0B1206A411C2162216806
:102C400000784860E08C401E0004000CE084E4D171
:102C50002068C16821F08001C1602068C16841F02E
:102C60004001C160F8BD206A0088C0F308005060D0
:102C7000206A801C2062E5E74006F3D54806F1D5BE
:102C8000D168204621F04001D16084F83D3000F049
:102C90008FF8F8BD0F32000870B5040004D094F826
:102CA0003D00002510B106E0012070BD84F83C50C5
:102CB000204600F023F8242084F83D002068C168F5
:102CC00021F40051C160204600F084FB20680169B6
:102CD00021F4904101612068416921F02A0141619C
:102CE0002068C16841F40051C1602564202084F847
:102CF0003D0084F83E00002070BD000070B586B035
:102D00000025064600950195029503950068224925
:102D100088423ED12149886940F4804088618869B1
:102D200000F480400490886940F00400886188695C
:102D30001B4C00F004000490481500900220019004
:102D40000320039069462046FFF754F82015CDE98B
:102D50000005694620460295FFF74CF8124C1148D1
:102D6000C4E900058020C4E9025025616561A561C0
:102D70002046E561FEF7D8FF08B1FEF7B9FEB4635F
:102D80000022114625206662FFF790F92520FFF703
:102D90007FF906B070BD000000380140001002400D
:102DA0000008014058000240C400002070477047EE
:102DB0007047FEE730B585B00024174800940194B1
:102DC00002940394816941F020018161816901F0DD
:102DD00020010491816941F004018161816901F060
:102DE00004010491816941F01001816180690B4DFA
:102DF00000F010000490002240212846FFF7EAF876
:102E0000402001218DE81300039169462846FEF712
:102E1000F1FF05B030BD000000100240001001407D
:102E200010B58EB000240794089409940A940B946A
:102E30001C2168460C94FDF752FA1E484FF0804161
:102E4000C0E9001445F6BF51C0E902410461846144
:102E5000FFF70EFC08B172B6FEE74FF48050079002
:102E600007A91448FFF744FC08B172B6FEE7114801
:102E7000FFF731FD08B172B6FEE70B940BA90D48C0
:102E80000C94FFF7BBFB08B172B6FEE76020009020
:102E900042F6E060CDE90104002269460548049449
:102EA000FFF7B6FC08B172B6FEE70248FFF78CFCEC
:102EB0000EB010BD38000020FEE7FEE770477047F7
:102EC000FFF794B830B58FB028216846FDF707FAB0
:102ED00014210AA8FDF703FA0225012004900095A9
:102EE0001020059000240004CDE9084007956846AD
:102EF000FFF7E0F908B172B6FEE70F200A90CDE9BE
:102F00000B540D9400210AA80E94FFF701F9002834
:102F100001D072B6FEE70FB030BD7047F0B5026861
:102F20001E4B1F4C1F4D4FF0804E984205D07045F0
:102F300003D0A04201D0A84203D122F070064A6813
:102F40003243194E194FDFF868C098420BD07045D4
:102F500009D0A04207D0A84205D0B04203D0B84261
:102F600001D0604503D122F44074CA6822434C6901
:102F700022F08002224302608A68C2620A6882628A
:102F8000984205D0B04203D0B84201D0604501D18B
:102F90000969016301214161F0BD0000002C01407D
:102FA000000400400008004000400140004401408F
:102FB0000048014010B501F01F030121046A994047
:102FC0008C430462016A9A401143016210BD10B53E
:102FD000846842EA032224F47F440A432243826045
:102FE00010BD826822F070020A4342F0070181603E
:102FF00070470000F0B5026A22F001020262036A23
:1030000042688469184E24F073050C68174F2C43EE
:1030100023F002058B68DFF858C02B43114DA842FE
:1030200005D0B04203D0B84201D0604506D123F0AC
:10303000080ECB6843EA0E0323F00403A84205D030
:10304000B04203D0B84201D0604505D14D6922F4A9
:10305000407215438A692A4342608461496841632A
:103060000362F0BD002C01400040014000440140DB
:103070000048014030B5026A22F010020262026A82
:10308000436884690D6824F4E64444EA05248D68A5
:1030900022F0200242EA0512104DA84207D1CD6865
:1030A00022F0800242EA051222F0400208E00C4DB4
:1030B000A84205D00B4DA84202D00B4DA84207D123
:1030C0004D6923F4406343EA85038D6943EA850330
:1030D0004360846149688163026230BD002C014015
:1030E00000400140004401400048014030B5026A00
:1030F00022F480720262036A4268C46923F4007396
:1031000024F073050C682C438D6843EA0523114DA8
:10311000A84207D1CD6823F4006343EA052323F4D2
:10312000806308E00C4DA84205D00C4DA84202D0A7
:103130000B4DA84207D14D6922F4405242EA0512D4
:103140008D6942EA05124260C4614968C163036245
:1031500030BD0000002C014000400140004401400F
:103160000048014030B5026A22F480520262046ACB
:103170004268C3690D6823F4E64343EA05238D687A
:1031800024F4005444EA05340B4DA84208D00B4DFA
:10319000A84205D00A4DA84202D00A4DA84204D147
:1031A0004D6922F4804242EA85124260C361496857
:1031B0000164046230BD0000002C01400040014069
:1031C000004401400048014010B5036A046A24F03D
:1031D00001040462846924F0F00444EA021423F038
:1031E0000A020A438461026210BD10B5036A23F02B
:1031F000100303628369046A23F4704343EA0232D2
:1032000024F0A00343EA01118261016210BD10B5F0
:10321000406A0021C185C184FFF736FC10BD70B53E
:10322000446A2068406994F83D10C0F3C01000253E
:10323000212904D118B1E584204600F067F8206800
:10324000406994F83E10C0F38010222904D118B1CF
:10325000E585204600F042F8206C40F01000206424
:103260002046FFF711FC70BD10B50146406A0968A1
:10327000096889061BD40021C1850168CA6822F447
:103280008072CA6001684A6922F001024A610168DD
:103290004A6922F040024A61202180F83E10016B09
:1032A000012904D10168CA6822F01002CA60016BCA
:1032B000012902D0FFF77AFD10BD818DFFF7C0FB19
:1032C00010BD10B5406A016B012902D0FFF76FFDF8
:1032D00010BD818D4908FFF7B3FB10BD0168CA68B6
:1032E00022F49072CA6001684A6922F001024A61C0
:1032F000016B012904D10168CA6822F01002CA607A
:10330000202180F83E100021016370470168CA68DF
:1033100022F0C002CA60202180F83D10704708B535
:1033200090F83E10222901D0022008BD82684FF497
:1033300080539A4201D1016921B1816A9A421BD01E
:103340004AB10AE00268816A5268C2F308020A8040
:10335000816A891C08E0026972B10268526802F051
:103360007F020A70816A491C8162C18D491E09046D
:10337000090CC18503D019E002685268F1E70168C1
:10338000CA6822F02002CA600168CA6822F480720A
:10339000CA6001684A6922F001024A61202180F86E
:1033A0003E10016B012903D0FFF700FD002008BD8E
:1033B000002101630168CA6822F01002CA60016836
:1033C0000A68D20602D50A6849680091818DFFF724
:1033D00037FBEBE72DE9F041044600680169E2683C
:1033E00021F44051114301612169A068E269084359
:1033F0006169114322680843D16849F20C6399431B
:103400000143D16020684169A26921F440711143F0
:10341000416136492068884202D1FEF7FDFE01E095
:10342000FEF7EAFE0246E36964203221B3F5004F5D
:1034300002EBC20303EB021362682BD09200B3FBD2
:10344000F2F5B5FBF0F5B3FBF2F66FF018077D432C
:1034500006EB8505B3FBF2F601EB0515B5FBF0F5C0
:10346000B6FBF0F605F0F00505EB0615B3FBF2F63A
:10347000B3FBF2F2B2FBF0F27A4306EB820201EB0D
:103480000211B1FBF0F000F00F00216828448860C1
:10349000BDE8F0815200B3FBF2F6B6FBF0F6B3FBE9
:1034A000F2F7B3FBF2F56FF0180C06FB0CF607EB26
:1034B000860601EBC606B5FBF0F5B6FBF0F62D016E
:1034C00006F0F80605EB4605B3FBF2F6B3FBF2F2A5
:1034D000B2FBF0F202FB0CF206EB820201EBC2013E
:1034E000B1FBF0F000F00700CFE70000003801402A
:1034F00038B5816282850025134604460564222082
:1035000084F83E00A26B13489062A26B1248D0620E
:10351000A26B12481063A06B0A4645632168A06B3A
:10352000091DFEF72FFC206801684168009184F8AE
:103530003C50C16841F48071C1602068416941F02C
:10354000010141612068416941F040014161002071
:1035500038BD000069320008C33200081F3200087D
:103560000148FFF793BA000080000020FEE709073A
:10357000090E002804DB00F1E02080F800147047F9
:1035800000F00F0000F1E02080F8141D704740F2B9
:10359000013200204FF0E04100F04EBF024A00200F
:1035A000110700F049BF000001FDFFFF10B5044600
:1035B000D1E9000100F002F8206010BDF8B5044622
:1035C0000D466A4600F06AF800987E3000900028A8
:1035D0001EDC002213462046294600F0E9FB17D0E6
:1035E000002140F608004FF000000646204629461C
:1035F00000F098F9044640F6080006EA00014FF092
:10360000000034F0004004BF0220FDF7ECFB29E08D
:103610000098FF2828DB002108464FF0000000F446
:103620004006002213462046294600F0ABFD8CBF21
:10363000002501250220FDF7D6FB4FF0FF4446B1DF
:10364000002D0CBF4FF400004FF48000B04218BFB3
:10365000084C042108464FF00000002D04BF84F000
:103660000040F8BD2046F8BD20462946BDE8F84098
:1036700000F058B9FFFF7F7F10B504460A46D4E931
:103680000003194600F036F8C4E9000110BD3038D7
:103690000A2801D2012070470020704710B5144657
:1036A00000222260114A21F000439342A8BF10BDBE
:1036B00053EA000208BF10BDB3F5801FA8BF2268FF
:1036C00007DA362200F0B8FE6FF0350221F0004331
:1036D0002260DFF81CC06FF31E510CEB23531A4419
:1036E00041F0FF5141F00051226010BD0000F07F19
:1036F00002FCFFFF2DE9F04106460C4640F2FF7543
:10370000174635EA14502BD000221346304600F0FD
:103710004FFB25D03A463046214600F08DFE064646
:103720000C4635EA145010D000221346304600F003
:103730003FFB15D10220FDF756FBFFF72FFF0A468E
:10374000214662F31E01BDE8F0810220FDF74BFB2C
:10375000FFF71DFF0A46214662F31E01BDE8F08116
:1037600030462146BDE8F08108B5FEF747FCFFF77B
:10377000A9FBFFF71FFB4B48416941F00101416183
:103780004069002200F00100009011460F20FEF772
:103790008DFC0F20FEF77CFC444843490025016066
:1037A0004FF4E131C0E901150C21C560C0E90451B5
:1037B0008561C561FFF770FA08B172B6FEE7FFF7E1
:1037C0002FFB3A490A2288313848FFF713F9374866
:1037D00044300068016821F0040101603348002191
:1037E0004838FFF7A7F8324C304E45F6BF50DFF8A7
:1037F000C49088364FF0804860602D4A2B482032B4
:103800002DA18830FCF708FD2778F05D64281ED0D4
:10381000732822D06628F0D1D4E9082392469B462B
:103820000020264900F06CF9C4E9040152465B46C9
:103830000020234900F064F90022204B00F0D8FC5E
:1038400000F0F2FA6060C8F82C00F555D5E7606822
:1038500000F047FBD4E9082318E0D4E90801194A2D
:10386000194B00F091FBC4E90201D4E9042300F0F4
:1038700047F900224B4600F087FBC4E90601824667
:103880008B46606800F02DFB52465B4600F07CFBE7
:1038900000224B4600F034F900F0F6FAC8F8340084
:1038A000D3E70000001002400038014080000020F3
:1038B0000000002000005940256C66000000F03F29
:1038C00060E376418DEDB5A0F7C6B03E10B5002996
:1038D0000AD00878002807D005487844FDF7BEFCD8
:1038E000002801D0002010BD0248784410BD00001F
:1038F000D20C0000CA0C000010B500290AD00878CC
:10390000002807D005487844FDF7A8FC002801D01E
:10391000002010BD0248784410BD0000C20C000019
:10392000BA0C000021F00042A2F16052B2F5801FF3
:1039300001F0004328BFD2F17F6C0BD95FEA001C75
:1039400043EAC20242EB507018BF704728BF20F014
:1039500001007047B2F5801FBCBF184670474FEAA0
:10396000410C1CF5001F02D2084600F02BBD70B5BB
:1039700000F0B4FB00000089FFF7F6BF4FF00040F5
:10398000A0F580007047000010B591EA030F48BF12
:1039900083F0004300F13484841A71EB030C05D2E8
:1039A000121943EB0C03001B61EB0C01DFF824E15F
:1039B0004FEA1154A4EB135C1EEA430F18BF9EEAB2
:1039C000445F73D023EA0E03DCF1200E21EA045198
:1039D00043F4801332D322FA0CFE10EB0E0023FACC
:1039E0000CFE41EB0E01CCF1200E03FA0EFE10EBA3
:1039F0000E0051F10001B1F5801FCCF1200E32D242
:103A000001EB045112FA0EF2BDE8104058BF7047A6
:103A1000401C38BF5FEA420218BF7047002814BF3D
:103A200020F0010041F100014FEA410313F5001FAE
:103A300038BF7047A1F1C04100F09EBB012A43EBA3
:103A40000302ACF1200CDCF11F0E32BF4FF0000E70
:103A500023FA0CF310EB030041EB0451B4EB115FBC
:103A6000D0D0A1EB045101F5801149085FEA300084
:103A700001EB04510ED350F1000038BF12FA0EFED4
:103A800008D1BDE81040C9E7401C38BF5FEA4202D8
:103A9000CAD1C3E7BDE810404FEA410313F5001F48
:103AA00038BF7047A1F1C04100F066BB9EEA445F99
:103AB00008D011EA5E0FBDE8104004BF01F00041DC
:103AC00000207047BDE8104070B500F007FB00BF54
:103AD00064FBBE3E0000E0FF02494FF0000000F032
:103AE00079BC00BF0000F87F491058BFC1F14041C8
:103AF0005B1058BFC3F140438B42EFF30080704727
:103B00002DE9C04130B4DFF8A0C23CEA111418BF5F
:103B10003CEA131400F0EC8081EA03051CEA11145E
:103B200044EAD57418BF1CEA131500F0C780A4EB53
:103B300005044FF0004545EAC12145EAC32341EAA7
:103B4000505143EA525304F17F74994204F5003412
:103B50004FEAC0204FEAC22208BF904200F09C808A
:103B60004FEA13650FF24016765D4FEA134506FBE8
:103B700005F7C7F1807706FB07F74FEAD737A7FBB2
:103B800003687642C8F58038A7FB06CE38BFA8F197
:103B9000010807FB08E64FF0000EA6FB028CE6FBCF
:103BA00003CEDCF1000CCEF1004E38BFAEF1010EB9
:103BB000A6FB0C584FF000074FF00005E6FB0E8700
:103BC000A1FB08C6A0FB07CE16EB0E0645F10005CB
:103BD000E1FB076515F1E04E7EBFA4F580345FEA96
:103BE00046066D4116F1800745F100054FEA17279B
:103BF0004FEA066647EA0567A6F1DE46B6F1805F42
:103C00004FEA15251FD9384624F0010C05EBC47185
:103C1000BCF1FE6F01EB0C1102D8F0BCBDE80081D5
:103C200024425CBF01F5801E9EEAC47F02D4F0BC32
:103C3000BDE80081244238D4F0BCA1F1C041BDE808
:103C4000004100F099BA4FEAD22242EA43524FEAC9
:103C5000D323A7FB02864FEAD02040EA415007FB5E
:103C600003661EEA0E0F4FEAD12105FB026658BF1C
:103C7000A6EB0056B6EB00564FEA520E4EEAC37E54
:103C800018EB0E0E56EB530EBDD518EB02085E4135
:103C90007F1C55F10005B6E74FF480154FF0000783
:103CA0004FF000064FF00008ADE7F0BC4FF0000009
:103CB00001F1C04101F00041BDE8008111EA0C1F93
:103CC0000CEA131500D00CE013EA0C1F00F025805D
:103CD0004FF00000F0BC81EA030101F00041BDE8B3
:103CE0000081F0BCBDE8004181EA030100F044BA64
:103CF000F0BCBDE8004170B500F0F0F9097EFC3E73
:103D000000F007B881EA03014FF0000001F0004124
:103D1000704781EA030100F02FBAF0BCBDE8004112
:103D20004FF0000021497047FFFDFBF9F7F5F4F271
:103D3000F0EEEDEBE9E8E6E4E3E1E0DEDDDBDAD846
:103D4000D7D5D4D3D1D0CFCDCCCBCAC8C7C6C5C4A4
:103D5000C2C1C0BFBEBDBCBBBAB9B8B7B6B5B4B3BB
:103D6000B2B1B0AFAEADACABAAA9A8A8A7A6A5A4A6
:103D7000A3A3A2A1A09F9F9E9D9C9C9B9A9999986A
:103D80009797969595949393929191908F8F8E8E0D
:103D90008D8C8C8B8B8A898988888787868585849A
:103DA00084838382828181800000FF070000F87F86
:103DB00051EA030C17D41CF5801F58BFBCF5801FB7
:103DC00000F10680994218BF704708BF90427047C3
:103DD00007D711F5801F58BF13F5801F19D49942DA
:103DE0007047894270471CF5801F08D5BCF5801FBD
:103DF000F7D58B4218BF704708BF824270474FF417
:103E0000001C1CEB410F38BF1CEB430F01D28B424F
:103E1000704770B500F062F9922449004FF00051EC
:103E20004FF08053FFF760BE4FEA41034FEA535310
:103E3000A3F58063D3F11E03C8BFD3F1210C0CDDC1
:103E40004FF0004242EAC12242EA505232FA03FCE9
:103E50008CEAE17CACEBE1707047102BC4BF002012
:103E6000704703F5787CBCF1FF3F04D06FF000424F
:103E700082EA2100704770B500F030F94992248041
:103E800000207047F2E700004FEA1153A3F580636A
:103E9000D3F11E03A8BFD3F1200C08DB4FF0004282
:103EA00042EAC12252EA505232FA03F07047094204
:103EB0000BD4102BC4BF0020704703F5787CBCF1F5
:103EC000FF3F05D04FF0FF3070474FF000007047C4
:103ED00070B500F003F900BF4992248000207047BC
:103EE000F0E710F0004248BF4042B0FA80F310FA09
:103EF00003F10AD0C3F11D0303F580634FEA41507B
:103F000002EB035202EBD12170474FF000007047E3
:103F100051EA030C17D41CF5801F58BFBCF5801F55
:103F200000F10680994218BF704708BF9042704761
:103F300007D711F5801F58BF13F5801F19D4994278
:103F40007047894270471CF5801F08D5BCF5801F5B
:103F5000F7D58B4218BF704708BF824270474FF4B5
:103F6000001C1CEB410F38BF1CEB430F01D28B42EE
:103F7000704770B500F0B2F8922449004FF000513C
:103F80004FF08053FFF7B0BDDFF848C170B51CEAB1
:103F9000111E1EBF1CEA13159EEA0C0F95EA0C0FAA
:103FA00000F06F8081EA030423EA4C134EEAD47ECA
:103FB00021EA4C1141F4801143F48013AE44A1FB7B
:103FC000024CA0FB0365AEF17F7E361955EB0C0564
:103FD000A1FB034C4CF10003A0FB021C16EB0C06EA
:103FE000654153F10003094218BF46F0010613F47E
:103FF000007F0BD14FEA03314FEA0530340341EA29
:10400000155140EA16506FF003020AE04FEAC3214F
:104010004FEAC520F40241EA555140EA56506FF08C
:10402000020202EB2E4201EB025585EACE710AD064
:104030005FEA440C18BF24F0004450F1000041F145
:10404000000120EAD47040F2FE7C624500D270BDCF
:10405000A84214BF4FF080444FF04044002E08BFE8
:104060000024BEF1806FA8BFA1F1C041BDE870403F
:1040700080F282804FF0000001F1C04101F0004168
:1040800070479EEA0C0F0CEA131518BF95EA0C0F47
:1040900006D04FF0000081EA030E0EF0004170BD23
:1040A00000F01CF88900013E00F007B800F009B8E4
:1040B0004FEA430C5FEA5C5C08D081EA030100F040
:1040C0005BB84FEA410C5FEA5C5CF6D14FF0000050
:1040D000014970470000FF070000F87F0EF1020E53
:1040E0002EF0030E5EF8046B364205D4012A43EB32
:1040F000030515F5001F12D8012841EB010C1CF532
:10410000001F0CD80ED14FEAD17C15F5001F0CEB27
:104110004C0C0CF1020C08BF4CEBD37C04E04FF0CC
:10412000080C01E04FEAD37C0CEB4C0526FA05F6AF
:1041300006F00706B6F1040C06D20EEB860CBDE8BD
:1041400070404CF0010C6047DFE80CF0090B0202F4
:104150004FF000414FF00000A1F5002170BD19465D
:104160001046012851EB010418BFD4F5001484BF98
:10417000002001F0004170BD0808A0F500114FEAD1
:104180003101704753EA010C17D41CF5801F58BF4A
:10419000BCF5801F00F106808B4218BF704708BF36
:1041A0008242704707D713F5801F58BF11F5801F53
:1041B00019D48B4270479B4270471CF5801F08D56D
:1041C000BCF5801FF7D5994218BF704708BF9042D1
:1041D00070474FF4001C1CEB430F38BF1CEB410F22
:1041E00001D2994270470FB40CBC03BCFFF7C1BEAB
:1041F00010B591EA030F48BF83F000433FF5CCAB05
:10420000841A71EB030C07D212198CF0004C43EBAB
:104210000C03001B61EB0C01DFF8A4E14FEA115421
:10422000A4EB135C1EEA430F18BF9EEA445F00F044
:10423000B08023EA6E03524221EA0451C3EB6E03BD
:1042400038BF5B1EDCF1200E25D322FA0CFE10EBEA
:104250000E0043FA0CFE41EB0E01CCF1200E03FAE6
:104260000EFE10EB0E0051F10001CCF1200E29D40E
:1042700012FA0EF201EB0451BDE8104058BF70472E
:10428000401C1CBFB2F1004F704700280CBF491CF6
:1042900020F00100704712EB020E43EB030218BF3F
:1042A0004FF0010E4EEA4202ACF1200CDCF11E0E82
:1042B00054D943FA0CFE10EB0E0051F1FF31CCF152
:1042C0001E0ED5D50EF1010E12FA0EFE404141EB45
:1042D000010101EB445C5FEA5C5C10D910EBDE701D
:1042E00001EB045138BFBEF1004FBDE8104018BFCC
:1042F000704700280CBF491C20F00100704730D2E5
:104300004FEAD42C11F5001124F400641BD0B1FA4B
:1043100081F20B3AA41AA41ED2F12003914030FA84
:1043200003F31943904001EBCC71002C01EB0451D5
:10433000BDE81040A8BF704701F1C0414FF0000038
:1043400001F000417047B0FA80F310FA03F100D198
:1043500010BDE41A173C4805C90AE4E701EB045113
:1043600010BD491001EB0451BDE810404FEA300088
:1043700002E04FF0000170474A0008BF0042F8D049
:10438000B2F5001F28BF704701F000414FF0000058
:1043900070479EEA445F07D011EA5E0FBDE8104007
:1043A00004BF002100207047BDE8104070B5FFF742
:1043B00095FE00BF40DFF63E83F000411046704797
:1043C0000000E0FFFF2141EAD050C00570474FF0E8
:1043D000000070470CF00F03092B08BF082000F005
:1043E0005F800A2B0BD0082B18BF704708BF1CF04A
:1043F000400F0AD04FF000004FF0000170471CF052
:10440000400F18BF4FF0004070471CF0100F08D04D
:1044100020F0704300F07F4242EAD3014FEA43703C
:10442000704700F0604021F07F4242EA000201F054
:104430007F4040EA727070474FF0FF0C4CF4E06C24
:104440001CEA11531CBF9CEA030C9445C2BFDA421C
:1044500001EB02517047002B0DD0BCF1000F0FD0C3
:10446000002A01F00041A4BF41F0E04141F07F612A
:104470004FF00000704701F000414FF0000070471E
:1044800050EA01334FF09B0C18BF4CF0806C7FF466
:1044900023AB7047FCF774B8FCF7ACBCFCF73ABE32
:1044A0001CF4801F11D01CF4E02F03D06FEACC3134
:1044B000490070474FF04050EFF3008222F0704205
:1044C00042EA000282F3008870474FF00000704714
:1044D00000000000000000000102030406070809B4
:1044E000000000000102030402400000000000A0E0
:1044F0000000000005400000000000C800000000AF
:104500000C4000000000409C00000000194000002A
:104510000020BCBE0000000034400000BFC91B8E5C
:1045200000000004B5400000504BCFD06607E2CF3A
:10453000010000006C4100003E8251AADFEEA7346A
:1045400001000000D9420000DCB5A0E23A301F971C
:10455000FFFFFFFFB4450000FD25A0C8E9A3C14F40
:10456000FFFFFFFFFF3F0000000000800000000091
:10457000FF3F00000000008000000000D846000857
:1045800000000020380000005C010008104700080F
:1045900038000020500700007801000800000000EB
:1045A0000000F07FFFFFFFFFFFFFEF7F1C00000018
:1045B00043000000F8FFFFFF0C0000000E000000A9
:1045C0000F0000002E00000010010000430000005A
:1045D000F8FFFFFF00404040404040404040414124
:1045E00041414140404040404040404040404040C8
:1045F0004040404040050202020202020202020262
:10460000020202020220202020202020202020025E
:1046100002020202020290909090909010101010EE
:10462000101010101010101010101010101010108A
:10463000020202020202888888888888080808081E
:1046400008080808080808080808080808080808EA
:104650000202020240000000000000000000000012
:10466000000000000000000000000000000000004A
:10467000000000000000000000000000000000003A
:10468000000000000000000000000000000000002A
:10469000000000000000000000000000000000001A
:1046A000000000000000000000000000000000000A
:1046B00000000000000000000000000000000000FA
:1046C00000000000000000000000000000000000EA
:1046D00000000000000000000000000000000000DA
:1046E00000000000000000000000000000000000CA
:1046F00000000000000000000000000000000000BA
:104700000100000010000000000000000024F40080
:0400000508000121CD
:00000001FF
